{
  "address": "0xDc64a140Aa3E981100a9becA4E685f962f0cF6C9",
  "abi": [
    {
      "inputs": [
        {
          "internalType": "address",
          "name": "vrfCoordinatorToken",
          "type": "address"
        },
        {
          "internalType": "address",
          "name": "vrfCoordinator",
          "type": "address"
        },
        {
          "internalType": "uint256",
          "name": "entranceFee",
          "type": "uint256"
        },
        {
          "internalType": "bytes32",
          "name": "gasLane",
          "type": "bytes32"
        },
        {
          "internalType": "uint64",
          "name": "subscriptionId",
          "type": "uint64"
        },
        {
          "internalType": "uint32",
          "name": "callbackGasLimit",
          "type": "uint32"
        },
        {
          "internalType": "uint256",
          "name": "interval",
          "type": "uint256"
        }
      ],
      "stateMutability": "nonpayable",
      "type": "constructor"
    },
    {
      "inputs": [
        {
          "internalType": "address",
          "name": "have",
          "type": "address"
        },
        {
          "internalType": "address",
          "name": "want",
          "type": "address"
        }
      ],
      "name": "OnlyCoordinatorCanFulfill",
      "type": "error"
    },
    {
      "inputs": [],
      "name": "Raffle__NotEnoughETHEntered",
      "type": "error"
    },
    {
      "inputs": [],
      "name": "Raffle__NotOpen",
      "type": "error"
    },
    {
      "inputs": [],
      "name": "Raffle__TransferFailed",
      "type": "error"
    },
    {
      "inputs": [
        {
          "internalType": "uint256",
          "name": "currentBalance",
          "type": "uint256"
        },
        {
          "internalType": "uint256",
          "name": "numPlayers",
          "type": "uint256"
        },
        {
          "internalType": "uint256",
          "name": "raffleState",
          "type": "uint256"
        }
      ],
      "name": "Raffle__UpkeepNotNeeded",
      "type": "error"
    },
    {
      "anonymous": false,
      "inputs": [
        {
          "indexed": true,
          "internalType": "address",
          "name": "previousOwner",
          "type": "address"
        },
        {
          "indexed": true,
          "internalType": "address",
          "name": "newOwner",
          "type": "address"
        }
      ],
      "name": "OwnershipTransferred",
      "type": "event"
    },
    {
      "anonymous": false,
      "inputs": [
        {
          "indexed": true,
          "internalType": "address",
          "name": "player",
          "type": "address"
        }
      ],
      "name": "RaffleEnter",
      "type": "event"
    },
    {
      "anonymous": false,
      "inputs": [
        {
          "indexed": true,
          "internalType": "uint256",
          "name": "requestId",
          "type": "uint256"
        }
      ],
      "name": "RequestedRaffleWinner",
      "type": "event"
    },
    {
      "anonymous": false,
      "inputs": [
        {
          "indexed": false,
          "internalType": "string",
          "name": "",
          "type": "string"
        }
      ],
      "name": "Selfdistruct",
      "type": "event"
    },
    {
      "anonymous": false,
      "inputs": [
        {
          "indexed": true,
          "internalType": "address",
          "name": "winner",
          "type": "address"
        }
      ],
      "name": "WinnerPicked",
      "type": "event"
    },
    {
      "inputs": [
        {
          "internalType": "bytes",
          "name": "",
          "type": "bytes"
        }
      ],
      "name": "checkUpkeep",
      "outputs": [
        {
          "internalType": "bool",
          "name": "upkeepNeeded",
          "type": "bool"
        },
        {
          "internalType": "bytes",
          "name": "",
          "type": "bytes"
        }
      ],
      "stateMutability": "nonpayable",
      "type": "function"
    },
    {
      "inputs": [],
      "name": "defaultToken",
      "outputs": [
        {
          "internalType": "address payable",
          "name": "",
          "type": "address"
        }
      ],
      "stateMutability": "view",
      "type": "function"
    },
    {
      "inputs": [
        {
          "internalType": "address",
          "name": "_tokenContract",
          "type": "address"
        }
      ],
      "name": "emptyERC20",
      "outputs": [
        {
          "internalType": "bool",
          "name": "",
          "type": "bool"
        }
      ],
      "stateMutability": "view",
      "type": "function"
    },
    {
      "inputs": [],
      "name": "enterRaffle",
      "outputs": [],
      "stateMutability": "payable",
      "type": "function"
    },
    {
      "inputs": [],
      "name": "getEntranceFee",
      "outputs": [
        {
          "internalType": "uint256",
          "name": "",
          "type": "uint256"
        }
      ],
      "stateMutability": "view",
      "type": "function"
    },
    {
      "inputs": [],
      "name": "getInterval",
      "outputs": [
        {
          "internalType": "uint256",
          "name": "",
          "type": "uint256"
        }
      ],
      "stateMutability": "view",
      "type": "function"
    },
    {
      "inputs": [],
      "name": "getLatestTimeStamp",
      "outputs": [
        {
          "internalType": "uint256",
          "name": "",
          "type": "uint256"
        }
      ],
      "stateMutability": "view",
      "type": "function"
    },
    {
      "inputs": [],
      "name": "getNumWords",
      "outputs": [
        {
          "internalType": "uint256",
          "name": "",
          "type": "uint256"
        }
      ],
      "stateMutability": "pure",
      "type": "function"
    },
    {
      "inputs": [],
      "name": "getNumberOfPlayer",
      "outputs": [
        {
          "internalType": "uint256",
          "name": "",
          "type": "uint256"
        }
      ],
      "stateMutability": "view",
      "type": "function"
    },
    {
      "inputs": [
        {
          "internalType": "uint256",
          "name": "index",
          "type": "uint256"
        }
      ],
      "name": "getPlayer",
      "outputs": [
        {
          "internalType": "address",
          "name": "",
          "type": "address"
        }
      ],
      "stateMutability": "view",
      "type": "function"
    },
    {
      "inputs": [],
      "name": "getRaffleState",
      "outputs": [
        {
          "internalType": "enum Raffle.RaffleState",
          "name": "",
          "type": "uint8"
        }
      ],
      "stateMutability": "view",
      "type": "function"
    },
    {
      "inputs": [],
      "name": "getRecentWinner",
      "outputs": [
        {
          "internalType": "address",
          "name": "",
          "type": "address"
        }
      ],
      "stateMutability": "view",
      "type": "function"
    },
    {
      "inputs": [],
      "name": "getRequestConfirmations",
      "outputs": [
        {
          "internalType": "uint256",
          "name": "",
          "type": "uint256"
        }
      ],
      "stateMutability": "pure",
      "type": "function"
    },
    {
      "inputs": [],
      "name": "getVRFCoordinatorAddress",
      "outputs": [
        {
          "internalType": "address",
          "name": "",
          "type": "address"
        }
      ],
      "stateMutability": "view",
      "type": "function"
    },
    {
      "inputs": [],
      "name": "owner",
      "outputs": [
        {
          "internalType": "address",
          "name": "",
          "type": "address"
        }
      ],
      "stateMutability": "view",
      "type": "function"
    },
    {
      "inputs": [
        {
          "internalType": "bytes",
          "name": "",
          "type": "bytes"
        }
      ],
      "name": "performUpkeep",
      "outputs": [],
      "stateMutability": "nonpayable",
      "type": "function"
    },
    {
      "inputs": [
        {
          "internalType": "uint256",
          "name": "requestId",
          "type": "uint256"
        },
        {
          "internalType": "uint256[]",
          "name": "randomWords",
          "type": "uint256[]"
        }
      ],
      "name": "rawFulfillRandomWords",
      "outputs": [],
      "stateMutability": "nonpayable",
      "type": "function"
    },
    {
      "inputs": [],
      "name": "renounceOwnership",
      "outputs": [],
      "stateMutability": "nonpayable",
      "type": "function"
    },
    {
      "inputs": [
        {
          "internalType": "bool",
          "name": "force",
          "type": "bool"
        }
      ],
      "name": "suicide",
      "outputs": [],
      "stateMutability": "nonpayable",
      "type": "function"
    },
    {
      "inputs": [
        {
          "internalType": "address",
          "name": "newOwner",
          "type": "address"
        }
      ],
      "name": "transferOwnership",
      "outputs": [],
      "stateMutability": "nonpayable",
      "type": "function"
    },
    {
      "inputs": [
        {
          "internalType": "address",
          "name": "_tokenContract",
          "type": "address"
        }
      ],
      "name": "withdrawToken",
      "outputs": [],
      "stateMutability": "nonpayable",
      "type": "function"
    }
  ],
  "transactionHash": "0x651adbe06a9bb08f8b2f2847448637e360dd3a45dbcd22820e0424840b465e45",
  "args": [
    "0x5FbDB2315678afecb367f032d93F642f64180aa3",
    "0xe7f1725E7734CE288F8367e1Bb143E90bb3F0512",
    "10000000000000000",
    "0xd89b2bf150e3b9e13446986e571fb9cab24b13cea0a43ea20a6049a85cc807cc",
    "1",
    "500000",
    "10"
  ],
  "numDeployments": 1,
  "solcInputHash": "fcd7d854f1459a8f8a82a40390a0058c",
  "bytecode": "0x6101606040523480156200001257600080fd5b50604051620023fc380380620023fc8339818101604052810190620000389190620002dd565b85876200005a6200004e6200019e60201b60201c565b620001a660201b60201c565b80600160006101000a81548173ffffffffffffffffffffffffffffffffffffffff021916908373ffffffffffffffffffffffffffffffffffffffff160217905550508073ffffffffffffffffffffffffffffffffffffffff1660808173ffffffffffffffffffffffffffffffffffffffff1660601b81525050508460a081815250508573ffffffffffffffffffffffffffffffffffffffff1660c08173ffffffffffffffffffffffffffffffffffffffff1660601b815250508360e081815250508267ffffffffffffffff166101008167ffffffffffffffff1660c01b815250508163ffffffff166101208163ffffffff1660e01b815250506000600360146101000a81548160ff021916908360018111156200017c576200017b620003fc565b5b02179055504260048190555080610140818152505050505050505050620004b2565b600033905090565b60008060009054906101000a900473ffffffffffffffffffffffffffffffffffffffff169050816000806101000a81548173ffffffffffffffffffffffffffffffffffffffff021916908373ffffffffffffffffffffffffffffffffffffffff1602179055508173ffffffffffffffffffffffffffffffffffffffff168173ffffffffffffffffffffffffffffffffffffffff167f8be0079c531659141344cd1fd0a4f28419497f9722a3daafe3b4186f6b6457e060405160405180910390a35050565b6000815190506200027b8162000430565b92915050565b60008151905062000292816200044a565b92915050565b600081519050620002a98162000464565b92915050565b600081519050620002c0816200047e565b92915050565b600081519050620002d78162000498565b92915050565b600080600080600080600060e0888a031215620002ff57620002fe6200042b565b5b60006200030f8a828b016200026a565b9750506020620003228a828b016200026a565b9650506040620003358a828b0162000298565b9550506060620003488a828b0162000281565b94505060806200035b8a828b01620002c6565b93505060a06200036e8a828b01620002af565b92505060c0620003818a828b0162000298565b91505092959891949750929550565b60006200039d82620003ae565b9050919050565b6000819050919050565b600073ffffffffffffffffffffffffffffffffffffffff82169050919050565b6000819050919050565b600063ffffffff82169050919050565b600067ffffffffffffffff82169050919050565b7f4e487b7100000000000000000000000000000000000000000000000000000000600052602160045260246000fd5b600080fd5b6200043b8162000390565b81146200044757600080fd5b50565b6200045581620003a4565b81146200046157600080fd5b50565b6200046f81620003ce565b81146200047b57600080fd5b50565b6200048981620003d8565b81146200049557600080fd5b50565b620004a381620003e8565b8114620004af57600080fd5b50565b60805160601c60a05160c05160601c60e0516101005160c01c6101205160e01c61014051611ec762000535600039600081816109d70152610c760152600061085e0152600061083b0152600061081a0152600081816107de01526109630152600081816104b201526105af0152600081816104ef01526105430152611ec76000f3fe60806040526004361061012a5760003560e01c80636e04ff0d116100ab5780638da5cb5b1161006f5780638da5cb5b1461039e57806391ad27b4146103c9578063bd4d025c146103f4578063c62731411461041f578063e55ae4e814610448578063f2fde38b146104855761012a565b80636e04ff0d146102b8578063715018a6146102f657806374c13fda1461030d5780638947606914610338578063899a109f146103615761012a565b80634585e33b116100f25780634585e33b146101e3578063473f1ddc1461020c57806353a2c19a1461023757806357bfc61c146102625780635f1b0fd81461028d5761012a565b806309bc33a71461012f578063115cbaf51461015a5780631fe543e3146101855780632cfcc539146101ae578063320229eb146101b8575b600080fd5b34801561013b57600080fd5b506101446104ae565b60405161015191906119d0565b60405180910390f35b34801561016657600080fd5b5061016f6104d6565b60405161017c9190611933565b60405180910390f35b34801561019157600080fd5b506101ac60048036038101906101a79190611617565b6104ed565b005b6101b66105ad565b005b3480156101c457600080fd5b506101cd61071c565b6040516101da91906119d0565b60405180910390f35b3480156101ef57600080fd5b5061020a60048036038101906102059190611527565b610726565b005b34801561021857600080fd5b50610221610926565b60405161022e919061180d565b60405180910390f35b34801561024357600080fd5b5061024c610950565b60405161025991906119d0565b60405180910390f35b34801561026e57600080fd5b5061027761095f565b604051610284919061180d565b60405180910390f35b34801561029957600080fd5b506102a2610987565b6040516102af91906119d0565b60405180910390f35b3480156102c457600080fd5b506102df60048036038101906102da9190611574565b610994565b6040516102ed9291906118b0565b60405180910390f35b34801561030257600080fd5b5061030b610a41565b005b34801561031957600080fd5b50610322610a55565b60405161032f9190611828565b60405180910390f35b34801561034457600080fd5b5061035f600480360381019061035a91906114a0565b610a7b565b005b34801561036d57600080fd5b50610388600480360381019061038391906114a0565b610baf565b6040516103959190611895565b60405180910390f35b3480156103aa57600080fd5b506103b3610c49565b6040516103c0919061180d565b60405180910390f35b3480156103d557600080fd5b506103de610c72565b6040516103eb91906119d0565b60405180910390f35b34801561040057600080fd5b50610409610c9a565b60405161041691906119d0565b60405180910390f35b34801561042b57600080fd5b50610446600480360381019061044191906114cd565b610ca7565b005b34801561045457600080fd5b5061046f600480360381019061046a91906115bd565b610de3565b60405161047c919061180d565b60405180910390f35b34801561049157600080fd5b506104ac60048036038101906104a791906114a0565b610e2b565b005b60007f0000000000000000000000000000000000000000000000000000000000000000905090565b6000600360149054906101000a900460ff16905090565b7f000000000000000000000000000000000000000000000000000000000000000073ffffffffffffffffffffffffffffffffffffffff163373ffffffffffffffffffffffffffffffffffffffff161461059f57337f00000000000000000000000000000000000000000000000000000000000000006040517f1cf993f4000000000000000000000000000000000000000000000000000000008152600401610596929190611843565b60405180910390fd5b6105a98282610eaf565b5050565b7f0000000000000000000000000000000000000000000000000000000000000000341015610607576040517fbd4e069500000000000000000000000000000000000000000000000000000000815260040160405180910390fd5b6000600181111561061b5761061a611cd8565b5b600360149054906101000a900460ff16600181111561063d5761063c611cd8565b5b14610674576040517f1425571c00000000000000000000000000000000000000000000000000000000815260040160405180910390fd5b6002339080600181540180825580915050600190039060005260206000200160009091909190916101000a81548173ffffffffffffffffffffffffffffffffffffffff021916908373ffffffffffffffffffffffffffffffffffffffff1602179055503373ffffffffffffffffffffffffffffffffffffffff167f0805e1d667bddb8a95f0f09880cf94f403fb596ce79928d9f29b74203ba284d460405160405180910390a2565b6000600454905090565b600061074060405180602001604052806000815250610994565b509050806107af5747600280549050600360149054906101000a900460ff16600181111561077157610770611cd8565b5b6040517f584327aa0000000000000000000000000000000000000000000000000000000081526004016107a6939291906119eb565b60405180910390fd5b6001600360146101000a81548160ff021916908360018111156107d5576107d4611cd8565b5b021790555060007f000000000000000000000000000000000000000000000000000000000000000073ffffffffffffffffffffffffffffffffffffffff16635d3b1d307f00000000000000000000000000000000000000000000000000000000000000007f000000000000000000000000000000000000000000000000000000000000000060037f000000000000000000000000000000000000000000000000000000000000000060016040518663ffffffff1660e01b815260040161089f9594939291906118e0565b602060405180830381600087803b1580156108b957600080fd5b505af11580156108cd573d6000803e3d6000fd5b505050506040513d601f19601f820116820180604052508101906108f191906115ea565b9050807fcd6e45c8998311cab7e9d4385596cac867e20a0587194b954fa3a731c93ce78b60405160405180910390a250505050565b6000600360009054906101000a900473ffffffffffffffffffffffffffffffffffffffff16905090565b6000600163ffffffff16905090565b60007f0000000000000000000000000000000000000000000000000000000000000000905090565b6000600361ffff16905090565b600060606000600360149054906101000a900460ff1660018111156109bc576109bb611cd8565b5b600060018111156109d0576109cf611cd8565b5b14905060007f000000000000000000000000000000000000000000000000000000000000000060045442610a049190611ae7565b11905060008060028054905011905060008047119050838015610a245750825b8015610a2d5750815b8015610a365750805b955050505050915091565b610a496110e2565b610a536000611160565b565b600160009054906101000a900473ffffffffffffffffffffffffffffffffffffffff1681565b610a836110e2565b600081905060008173ffffffffffffffffffffffffffffffffffffffff166370a08231306040518263ffffffff1660e01b8152600401610ac3919061180d565b60206040518083038186803b158015610adb57600080fd5b505afa158015610aef573d6000803e3d6000fd5b505050506040513d601f19601f82011682018060405250810190610b1391906115ea565b90508173ffffffffffffffffffffffffffffffffffffffff1663a9059cbb610b39610c49565b836040518363ffffffff1660e01b8152600401610b5792919061186c565b602060405180830381600087803b158015610b7157600080fd5b505af1158015610b85573d6000803e3d6000fd5b505050506040513d601f19601f82011682018060405250810190610ba991906114fa565b50505050565b60008082905060008173ffffffffffffffffffffffffffffffffffffffff166370a08231306040518263ffffffff1660e01b8152600401610bf0919061180d565b60206040518083038186803b158015610c0857600080fd5b505afa158015610c1c573d6000803e3d6000fd5b505050506040513d601f19601f82011682018060405250810190610c4091906115ea565b14915050919050565b60008060009054906101000a900473ffffffffffffffffffffffffffffffffffffffff16905090565b60007f0000000000000000000000000000000000000000000000000000000000000000905090565b6000600280549050905090565b610caf6110e2565b600081610d0f57610ce1600160009054906101000a900473ffffffffffffffffffffffffffffffffffffffff16610a7b565b610d0c600160009054906101000a900473ffffffffffffffffffffffffffffffffffffffff16610baf565b90505b8080610d185750815b610d57576040517f08c379a0000000000000000000000000000000000000000000000000000000008152600401610d4e90611990565b60405180910390fd5b7ffb3d2b53dec98ef4b46cc82be9c705125ff09354c561c337dbc4692ede1d8dbc6040518060400160405280600681526020017f4279654279650000000000000000000000000000000000000000000000000000815250604051610dbb919061194e565b60405180910390a1610dcb610c49565b73ffffffffffffffffffffffffffffffffffffffff16ff5b600060028281548110610df957610df8611d07565b5b9060005260206000200160009054906101000a900473ffffffffffffffffffffffffffffffffffffffff169050919050565b610e336110e2565b600073ffffffffffffffffffffffffffffffffffffffff168173ffffffffffffffffffffffffffffffffffffffff161415610ea3576040517f08c379a0000000000000000000000000000000000000000000000000000000008152600401610e9a90611970565b60405180910390fd5b610eac81611160565b50565b600060028054905082600081518110610ecb57610eca611d07565b5b6020026020010151610edd9190611c49565b9050600060028281548110610ef557610ef4611d07565b5b9060005260206000200160009054906101000a900473ffffffffffffffffffffffffffffffffffffffff16905080600360006101000a81548173ffffffffffffffffffffffffffffffffffffffff021916908373ffffffffffffffffffffffffffffffffffffffff1602179055506000600360146101000a81548160ff02191690836001811115610f8957610f88611cd8565b5b0217905550600067ffffffffffffffff811115610fa957610fa8611d36565b5b604051908082528060200260200182016040528015610fd75781602001602082028036833780820191505090505b5060029080519060200190610fed92919061122c565b504260048190555060008173ffffffffffffffffffffffffffffffffffffffff164760405161101b906117f8565b60006040518083038185875af1925050503d8060008114611058576040519150601f19603f3d011682016040523d82523d6000602084013e61105d565b606091505b5050905080611098576040517fa1d04b3900000000000000000000000000000000000000000000000000000000815260040160405180910390fd5b8173ffffffffffffffffffffffffffffffffffffffff167f5b690ec4a06fe979403046eaeea5b3ce38524683c3001f662c8b5a829632f7df60405160405180910390a25050505050565b6110ea611224565b73ffffffffffffffffffffffffffffffffffffffff16611108610c49565b73ffffffffffffffffffffffffffffffffffffffff161461115e576040517f08c379a0000000000000000000000000000000000000000000000000000000008152600401611155906119b0565b60405180910390fd5b565b60008060009054906101000a900473ffffffffffffffffffffffffffffffffffffffff169050816000806101000a81548173ffffffffffffffffffffffffffffffffffffffff021916908373ffffffffffffffffffffffffffffffffffffffff1602179055508173ffffffffffffffffffffffffffffffffffffffff168173ffffffffffffffffffffffffffffffffffffffff167f8be0079c531659141344cd1fd0a4f28419497f9722a3daafe3b4186f6b6457e060405160405180910390a35050565b600033905090565b8280548282559060005260206000209081019282156112a5579160200282015b828111156112a45782518260006101000a81548173ffffffffffffffffffffffffffffffffffffffff021916908373ffffffffffffffffffffffffffffffffffffffff1602179055509160200191906001019061124c565b5b5090506112b291906112b6565b5090565b5b808211156112cf5760008160009055506001016112b7565b5090565b60006112e66112e184611a47565b611a22565b9050808382526020820190508285602086028201111561130957611308611d6f565b5b60005b85811015611339578161131f8882611476565b84526020840193506020830192505060018101905061130c565b5050509392505050565b600061135661135184611a73565b611a22565b90508281526020810184848401111561137257611371611d74565b5b61137d848285611bd6565b509392505050565b60008135905061139481611e4c565b92915050565b600082601f8301126113af576113ae611d6a565b5b81356113bf8482602086016112d3565b91505092915050565b6000813590506113d781611e63565b92915050565b6000815190506113ec81611e63565b92915050565b60008083601f84011261140857611407611d6a565b5b8235905067ffffffffffffffff81111561142557611424611d65565b5b60208301915083600182028301111561144157611440611d6f565b5b9250929050565b600082601f83011261145d5761145c611d6a565b5b813561146d848260208601611343565b91505092915050565b60008135905061148581611e7a565b92915050565b60008151905061149a81611e7a565b92915050565b6000602082840312156114b6576114b5611d7e565b5b60006114c484828501611385565b91505092915050565b6000602082840312156114e3576114e2611d7e565b5b60006114f1848285016113c8565b91505092915050565b6000602082840312156115105761150f611d7e565b5b600061151e848285016113dd565b91505092915050565b6000806020838503121561153e5761153d611d7e565b5b600083013567ffffffffffffffff81111561155c5761155b611d79565b5b611568858286016113f2565b92509250509250929050565b60006020828403121561158a57611589611d7e565b5b600082013567ffffffffffffffff8111156115a8576115a7611d79565b5b6115b484828501611448565b91505092915050565b6000602082840312156115d3576115d2611d7e565b5b60006115e184828501611476565b91505092915050565b600060208284031215611600576115ff611d7e565b5b600061160e8482850161148b565b91505092915050565b6000806040838503121561162e5761162d611d7e565b5b600061163c85828601611476565b925050602083013567ffffffffffffffff81111561165d5761165c611d79565b5b6116698582860161139a565b9150509250929050565b61167c81611b2d565b82525050565b61168b81611b1b565b82525050565b61169a81611b3f565b82525050565b6116a981611b4b565b82525050565b60006116ba82611aa4565b6116c48185611aba565b93506116d4818560208601611be5565b6116dd81611d83565b840191505092915050565b6116f181611bc4565b82525050565b600061170282611aaf565b61170c8185611ad6565b935061171c818560208601611be5565b61172581611d83565b840191505092915050565b600061173d602683611ad6565b915061174882611d94565b604082019050919050565b6000611760601583611ad6565b915061176b82611de3565b602082019050919050565b6000611783602083611ad6565b915061178e82611e0c565b602082019050919050565b60006117a6600083611acb565b91506117b182611e35565b600082019050919050565b6117c581611b68565b82525050565b6117d481611b96565b82525050565b6117e381611ba0565b82525050565b6117f281611bb0565b82525050565b600061180382611799565b9150819050919050565b60006020820190506118226000830184611682565b92915050565b600060208201905061183d6000830184611673565b92915050565b60006040820190506118586000830185611682565b6118656020830184611682565b9392505050565b60006040820190506118816000830185611682565b61188e60208301846117cb565b9392505050565b60006020820190506118aa6000830184611691565b92915050565b60006040820190506118c56000830185611691565b81810360208301526118d781846116af565b90509392505050565b600060a0820190506118f560008301886116a0565b61190260208301876117e9565b61190f60408301866117bc565b61191c60608301856117da565b61192960808301846117da565b9695505050505050565b600060208201905061194860008301846116e8565b92915050565b6000602082019050818103600083015261196881846116f7565b905092915050565b6000602082019050818103600083015261198981611730565b9050919050565b600060208201905081810360008301526119a981611753565b9050919050565b600060208201905081810360008301526119c981611776565b9050919050565b60006020820190506119e560008301846117cb565b92915050565b6000606082019050611a0060008301866117cb565b611a0d60208301856117cb565b611a1a60408301846117cb565b949350505050565b6000611a2c611a3d565b9050611a388282611c18565b919050565b6000604051905090565b600067ffffffffffffffff821115611a6257611a61611d36565b5b602082029050602081019050919050565b600067ffffffffffffffff821115611a8e57611a8d611d36565b5b611a9782611d83565b9050602081019050919050565b600081519050919050565b600081519050919050565b600082825260208201905092915050565b600081905092915050565b600082825260208201905092915050565b6000611af282611b96565b9150611afd83611b96565b925082821015611b1057611b0f611c7a565b5b828203905092915050565b6000611b2682611b76565b9050919050565b6000611b3882611b76565b9050919050565b60008115159050919050565b6000819050919050565b6000819050611b6382611e38565b919050565b600061ffff82169050919050565b600073ffffffffffffffffffffffffffffffffffffffff82169050919050565b6000819050919050565b600063ffffffff82169050919050565b600067ffffffffffffffff82169050919050565b6000611bcf82611b55565b9050919050565b82818337600083830152505050565b60005b83811015611c03578082015181840152602081019050611be8565b83811115611c12576000848401525b50505050565b611c2182611d83565b810181811067ffffffffffffffff82111715611c4057611c3f611d36565b5b80604052505050565b6000611c5482611b96565b9150611c5f83611b96565b925082611c6f57611c6e611ca9565b5b828206905092915050565b7f4e487b7100000000000000000000000000000000000000000000000000000000600052601160045260246000fd5b7f4e487b7100000000000000000000000000000000000000000000000000000000600052601260045260246000fd5b7f4e487b7100000000000000000000000000000000000000000000000000000000600052602160045260246000fd5b7f4e487b7100000000000000000000000000000000000000000000000000000000600052603260045260246000fd5b7f4e487b7100000000000000000000000000000000000000000000000000000000600052604160045260246000fd5b600080fd5b600080fd5b600080fd5b600080fd5b600080fd5b600080fd5b6000601f19601f8301169050919050565b7f4f776e61626c653a206e6577206f776e657220697320746865207a65726f206160008201527f6464726573730000000000000000000000000000000000000000000000000000602082015250565b7f546f6b656e20416d6f756e74204e6f74205a65726f0000000000000000000000600082015250565b7f4f776e61626c653a2063616c6c6572206973206e6f7420746865206f776e6572600082015250565b50565b60028110611e4957611e48611cd8565b5b50565b611e5581611b1b565b8114611e6057600080fd5b50565b611e6c81611b3f565b8114611e7757600080fd5b50565b611e8381611b96565b8114611e8e57600080fd5b5056fea26469706673582212209f4beae96064f1c3a6cc10065b2c065cc63af658ec8abf84dbbf696cbcf1f08164736f6c63430008070033",
  "devdoc": {
    "author": "popelev",
    "details": "This implements Chainlink VRF v2 and chainlink Keepers",
    "kind": "dev",
    "methods": {
      "checkUpkeep(bytes)": {
        "details": "This is the function that the CainLink Keeper nodes call  they look for the 'unkeeperNeeded' to return true.  The folowing should be true in order to return true:  1. Our time interval should have passed.  2. The lottery should have at least 1 playear and have some ETH.  3. Our subscription is funded with LINK.  4. The lotery should be an \"open\" state."
      },
      "owner()": {
        "details": "Returns the address of the current owner."
      },
      "renounceOwnership()": {
        "details": "Leaves the contract without owner. It will not be possible to call `onlyOwner` functions anymore. Can only be called by the current owner. NOTE: Renouncing ownership will leave the contract without an owner, thereby removing any functionality that is only available to the owner."
      },
      "transferOwnership(address)": {
        "details": "Transfers ownership of the contract to a new account (`newOwner`). Can only be called by the current owner."
      }
    },
    "title": "A sample Raffle Contract",
    "version": 1
  },
  "userdoc": {
    "kind": "user",
    "methods": {},
    "notice": "This is for creating an untamperable decentralized smart contract",
    "version": 1
  },
  "storageLayout": {
    "storage": [
      {
        "astId": 173,
        "contract": "contracts/Raffle.sol:Raffle",
        "label": "_owner",
        "offset": 0,
        "slot": "0",
        "type": "t_address"
      },
      {
        "astId": 826,
        "contract": "contracts/Raffle.sol:Raffle",
        "label": "defaultToken",
        "offset": 0,
        "slot": "1",
        "type": "t_address_payable"
      },
      {
        "astId": 413,
        "contract": "contracts/Raffle.sol:Raffle",
        "label": "s_players",
        "offset": 0,
        "slot": "2",
        "type": "t_array(t_address_payable)dyn_storage"
      },
      {
        "astId": 430,
        "contract": "contracts/Raffle.sol:Raffle",
        "label": "s_recentWinner",
        "offset": 0,
        "slot": "3",
        "type": "t_address"
      },
      {
        "astId": 433,
        "contract": "contracts/Raffle.sol:Raffle",
        "label": "s_raffleState",
        "offset": 20,
        "slot": "3",
        "type": "t_enum(RaffleState)408"
      },
      {
        "astId": 435,
        "contract": "contracts/Raffle.sol:Raffle",
        "label": "s_lastTimeStamp",
        "offset": 0,
        "slot": "4",
        "type": "t_uint256"
      }
    ],
    "types": {
      "t_address": {
        "encoding": "inplace",
        "label": "address",
        "numberOfBytes": "20"
      },
      "t_address_payable": {
        "encoding": "inplace",
        "label": "address payable",
        "numberOfBytes": "20"
      },
      "t_array(t_address_payable)dyn_storage": {
        "base": "t_address_payable",
        "encoding": "dynamic_array",
        "label": "address payable[]",
        "numberOfBytes": "32"
      },
      "t_enum(RaffleState)408": {
        "encoding": "inplace",
        "label": "enum Raffle.RaffleState",
        "numberOfBytes": "1"
      },
      "t_uint256": {
        "encoding": "inplace",
        "label": "uint256",
        "numberOfBytes": "32"
      }
    }
  }
}