{
  "address": "0xCf7Ed3AccA5a467e9e704C703E8D87F634fB0Fc9",
  "abi": [
    {
      "inputs": [
        {
          "internalType": "address",
          "name": "vrfCoordinatorToken",
          "type": "address"
        },
        {
          "internalType": "address",
          "name": "vrfCoordinator",
          "type": "address"
        },
        {
          "internalType": "uint256",
          "name": "entranceFee",
          "type": "uint256"
        },
        {
          "internalType": "bytes32",
          "name": "gasLane",
          "type": "bytes32"
        },
        {
          "internalType": "uint64",
          "name": "subscriptionId",
          "type": "uint64"
        },
        {
          "internalType": "uint32",
          "name": "callbackGasLimit",
          "type": "uint32"
        },
        {
          "internalType": "uint256",
          "name": "interval",
          "type": "uint256"
        }
      ],
      "stateMutability": "nonpayable",
      "type": "constructor"
    },
    {
      "inputs": [
        {
          "internalType": "address",
          "name": "have",
          "type": "address"
        },
        {
          "internalType": "address",
          "name": "want",
          "type": "address"
        }
      ],
      "name": "OnlyCoordinatorCanFulfill",
      "type": "error"
    },
    {
      "inputs": [],
      "name": "Raffle__NotEnoughETHEntered",
      "type": "error"
    },
    {
      "inputs": [],
      "name": "Raffle__NotOpen",
      "type": "error"
    },
    {
      "inputs": [],
      "name": "Raffle__TransferFailed",
      "type": "error"
    },
    {
      "inputs": [
        {
          "internalType": "uint256",
          "name": "currentBalance",
          "type": "uint256"
        },
        {
          "internalType": "uint256",
          "name": "numPlayers",
          "type": "uint256"
        },
        {
          "internalType": "uint256",
          "name": "raffleState",
          "type": "uint256"
        }
      ],
      "name": "Raffle__UpkeepNotNeeded",
      "type": "error"
    },
    {
      "inputs": [],
      "name": "Selfdistruct__TokenAmountNotZero",
      "type": "error"
    },
    {
      "anonymous": false,
      "inputs": [
        {
          "indexed": true,
          "internalType": "address",
          "name": "previousOwner",
          "type": "address"
        },
        {
          "indexed": true,
          "internalType": "address",
          "name": "newOwner",
          "type": "address"
        }
      ],
      "name": "OwnershipTransferred",
      "type": "event"
    },
    {
      "anonymous": false,
      "inputs": [
        {
          "indexed": true,
          "internalType": "address",
          "name": "player",
          "type": "address"
        }
      ],
      "name": "RaffleEnter",
      "type": "event"
    },
    {
      "anonymous": false,
      "inputs": [
        {
          "indexed": true,
          "internalType": "uint256",
          "name": "requestId",
          "type": "uint256"
        }
      ],
      "name": "RequestedRaffleWinner",
      "type": "event"
    },
    {
      "anonymous": false,
      "inputs": [
        {
          "indexed": true,
          "internalType": "address",
          "name": "winner",
          "type": "address"
        }
      ],
      "name": "WinnerPicked",
      "type": "event"
    },
    {
      "inputs": [
        {
          "internalType": "bytes",
          "name": "",
          "type": "bytes"
        }
      ],
      "name": "checkUpkeep",
      "outputs": [
        {
          "internalType": "bool",
          "name": "upkeepNeeded",
          "type": "bool"
        },
        {
          "internalType": "bytes",
          "name": "",
          "type": "bytes"
        }
      ],
      "stateMutability": "nonpayable",
      "type": "function"
    },
    {
      "inputs": [],
      "name": "defaultToken",
      "outputs": [
        {
          "internalType": "address payable",
          "name": "",
          "type": "address"
        }
      ],
      "stateMutability": "view",
      "type": "function"
    },
    {
      "inputs": [
        {
          "internalType": "address",
          "name": "_tokenContract",
          "type": "address"
        }
      ],
      "name": "emptyERC20",
      "outputs": [
        {
          "internalType": "bool",
          "name": "",
          "type": "bool"
        }
      ],
      "stateMutability": "view",
      "type": "function"
    },
    {
      "inputs": [],
      "name": "enterRuffle",
      "outputs": [],
      "stateMutability": "payable",
      "type": "function"
    },
    {
      "inputs": [],
      "name": "getEntranceFee",
      "outputs": [
        {
          "internalType": "uint256",
          "name": "",
          "type": "uint256"
        }
      ],
      "stateMutability": "view",
      "type": "function"
    },
    {
      "inputs": [],
      "name": "getLatestTimeStamp",
      "outputs": [
        {
          "internalType": "uint256",
          "name": "",
          "type": "uint256"
        }
      ],
      "stateMutability": "view",
      "type": "function"
    },
    {
      "inputs": [],
      "name": "getNumWords",
      "outputs": [
        {
          "internalType": "uint256",
          "name": "",
          "type": "uint256"
        }
      ],
      "stateMutability": "pure",
      "type": "function"
    },
    {
      "inputs": [],
      "name": "getNumberOfPlayer",
      "outputs": [
        {
          "internalType": "uint256",
          "name": "",
          "type": "uint256"
        }
      ],
      "stateMutability": "view",
      "type": "function"
    },
    {
      "inputs": [
        {
          "internalType": "uint256",
          "name": "index",
          "type": "uint256"
        }
      ],
      "name": "getPlayer",
      "outputs": [
        {
          "internalType": "address",
          "name": "",
          "type": "address"
        }
      ],
      "stateMutability": "view",
      "type": "function"
    },
    {
      "inputs": [],
      "name": "getRaffleState",
      "outputs": [
        {
          "internalType": "enum Raffle.RaffleState",
          "name": "",
          "type": "uint8"
        }
      ],
      "stateMutability": "view",
      "type": "function"
    },
    {
      "inputs": [],
      "name": "getRecentWinner",
      "outputs": [
        {
          "internalType": "address",
          "name": "",
          "type": "address"
        }
      ],
      "stateMutability": "view",
      "type": "function"
    },
    {
      "inputs": [],
      "name": "getRequestConfirmations",
      "outputs": [
        {
          "internalType": "uint256",
          "name": "",
          "type": "uint256"
        }
      ],
      "stateMutability": "pure",
      "type": "function"
    },
    {
      "inputs": [],
      "name": "getVRFCoordinatorAddress",
      "outputs": [
        {
          "internalType": "address",
          "name": "",
          "type": "address"
        }
      ],
      "stateMutability": "view",
      "type": "function"
    },
    {
      "inputs": [],
      "name": "owner",
      "outputs": [
        {
          "internalType": "address",
          "name": "",
          "type": "address"
        }
      ],
      "stateMutability": "view",
      "type": "function"
    },
    {
      "inputs": [
        {
          "internalType": "bytes",
          "name": "",
          "type": "bytes"
        }
      ],
      "name": "performUpkeep",
      "outputs": [],
      "stateMutability": "nonpayable",
      "type": "function"
    },
    {
      "inputs": [
        {
          "internalType": "uint256",
          "name": "requestId",
          "type": "uint256"
        },
        {
          "internalType": "uint256[]",
          "name": "randomWords",
          "type": "uint256[]"
        }
      ],
      "name": "rawFulfillRandomWords",
      "outputs": [],
      "stateMutability": "nonpayable",
      "type": "function"
    },
    {
      "inputs": [],
      "name": "renounceOwnership",
      "outputs": [],
      "stateMutability": "nonpayable",
      "type": "function"
    },
    {
      "inputs": [
        {
          "internalType": "bool",
          "name": "force",
          "type": "bool"
        }
      ],
      "name": "suicide",
      "outputs": [],
      "stateMutability": "nonpayable",
      "type": "function"
    },
    {
      "inputs": [
        {
          "internalType": "address",
          "name": "newOwner",
          "type": "address"
        }
      ],
      "name": "transferOwnership",
      "outputs": [],
      "stateMutability": "nonpayable",
      "type": "function"
    },
    {
      "inputs": [
        {
          "internalType": "address",
          "name": "_tokenContract",
          "type": "address"
        }
      ],
      "name": "withdrawToken",
      "outputs": [],
      "stateMutability": "nonpayable",
      "type": "function"
    }
  ],
  "transactionHash": "0x4c16f24eda8a981c01a563369a059b137b7edaeb77062098d6a83dafd77deaae",
  "args": [
    "0x01BE23585060835E02B77ef475b0Cc51aA1e0709",
    "0x5FbDB2315678afecb367f032d93F642f64180aa3",
    "10000000000000000",
    "0xd89b2bf150e3b9e13446986e571fb9cab24b13cea0a43ea20a6049a85cc807cc",
    "1",
    "500000",
    "30"
  ],
  "numDeployments": 1,
  "solcInputHash": "cda09a4e2410f645b7e30177a41493bf",
  "bytecode": "0x6101606040523480156200001257600080fd5b5060405162002251380380620022518339818101604052810190620000389190620002dd565b85876200005a6200004e6200019e60201b60201c565b620001a660201b60201c565b80600160006101000a81548173ffffffffffffffffffffffffffffffffffffffff021916908373ffffffffffffffffffffffffffffffffffffffff160217905550508073ffffffffffffffffffffffffffffffffffffffff1660808173ffffffffffffffffffffffffffffffffffffffff1660601b81525050508460a081815250508573ffffffffffffffffffffffffffffffffffffffff1660c08173ffffffffffffffffffffffffffffffffffffffff1660601b815250508360e081815250508267ffffffffffffffff166101008167ffffffffffffffff1660c01b815250508163ffffffff166101208163ffffffff1660e01b815250506000600360146101000a81548160ff021916908360018111156200017c576200017b620003fc565b5b02179055504260048190555080610140818152505050505050505050620004b2565b600033905090565b60008060009054906101000a900473ffffffffffffffffffffffffffffffffffffffff169050816000806101000a81548173ffffffffffffffffffffffffffffffffffffffff021916908373ffffffffffffffffffffffffffffffffffffffff1602179055508173ffffffffffffffffffffffffffffffffffffffff168173ffffffffffffffffffffffffffffffffffffffff167f8be0079c531659141344cd1fd0a4f28419497f9722a3daafe3b4186f6b6457e060405160405180910390a35050565b6000815190506200027b8162000430565b92915050565b60008151905062000292816200044a565b92915050565b600081519050620002a98162000464565b92915050565b600081519050620002c0816200047e565b92915050565b600081519050620002d78162000498565b92915050565b600080600080600080600060e0888a031215620002ff57620002fe6200042b565b5b60006200030f8a828b016200026a565b9750506020620003228a828b016200026a565b9650506040620003358a828b0162000298565b9550506060620003488a828b0162000281565b94505060806200035b8a828b01620002c6565b93505060a06200036e8a828b01620002af565b92505060c0620003818a828b0162000298565b91505092959891949750929550565b60006200039d82620003ae565b9050919050565b6000819050919050565b600073ffffffffffffffffffffffffffffffffffffffff82169050919050565b6000819050919050565b600063ffffffff82169050919050565b600067ffffffffffffffff82169050919050565b7f4e487b7100000000000000000000000000000000000000000000000000000000600052602160045260246000fd5b600080fd5b6200043b8162000390565b81146200044757600080fd5b50565b6200045581620003a4565b81146200046157600080fd5b50565b6200046f81620003ce565b81146200047b57600080fd5b50565b6200048981620003d8565b81146200049557600080fd5b50565b620004a381620003e8565b8114620004af57600080fd5b50565b60805160601c60a05160c05160601c60e0516101005160c01c6101205160e01c61014051611d236200052e60003960006109a10152600061082801526000610805015260006107e40152600081816107a8015261092d01526000818161047c01526105790152600081816104b9015261050d0152611d236000f3fe60806040526004361061011f5760003560e01c80636e04ff0d116100a05780638da5cb5b116100645780638da5cb5b14610393578063bd4d025c146103be578063c6273141146103e9578063e55ae4e814610412578063f2fde38b1461044f5761011f565b80636e04ff0d146102ad578063715018a6146102eb57806374c13fda14610302578063894760691461032d578063899a109f146103565761011f565b80634585e33b116100e75780634585e33b146101d8578063473f1ddc1461020157806353a2c19a1461022c57806357bfc61c146102575780635f1b0fd8146102825761011f565b806309bc33a714610124578063115cbaf51461014f5780631fe543e31461017a5780632cf3212f146101a3578063320229eb146101ad575b600080fd5b34801561013057600080fd5b50610139610478565b6040516101469190611860565b60405180910390f35b34801561015b57600080fd5b506101646104a0565b6040516101719190611805565b60405180910390f35b34801561018657600080fd5b506101a1600480360381019061019c9190611545565b6104b7565b005b6101ab610577565b005b3480156101b957600080fd5b506101c26106e6565b6040516101cf9190611860565b60405180910390f35b3480156101e457600080fd5b506101ff60048036038101906101fa9190611455565b6106f0565b005b34801561020d57600080fd5b506102166108f0565b60405161022391906116df565b60405180910390f35b34801561023857600080fd5b5061024161091a565b60405161024e9190611860565b60405180910390f35b34801561026357600080fd5b5061026c610929565b60405161027991906116df565b60405180910390f35b34801561028e57600080fd5b50610297610951565b6040516102a49190611860565b60405180910390f35b3480156102b957600080fd5b506102d460048036038101906102cf91906114a2565b61095e565b6040516102e2929190611782565b60405180910390f35b3480156102f757600080fd5b50610300610a0b565b005b34801561030e57600080fd5b50610317610a1f565b60405161032491906116fa565b60405180910390f35b34801561033957600080fd5b50610354600480360381019061034f91906113ce565b610a45565b005b34801561036257600080fd5b5061037d600480360381019061037891906113ce565b610b79565b60405161038a9190611767565b60405180910390f35b34801561039f57600080fd5b506103a8610c13565b6040516103b591906116df565b60405180910390f35b3480156103ca57600080fd5b506103d3610c3c565b6040516103e09190611860565b60405180910390f35b3480156103f557600080fd5b50610410600480360381019061040b91906113fb565b610c49565b005b34801561041e57600080fd5b50610439600480360381019061043491906114eb565b610d11565b60405161044691906116df565b60405180910390f35b34801561045b57600080fd5b50610476600480360381019061047191906113ce565b610d59565b005b60007f0000000000000000000000000000000000000000000000000000000000000000905090565b6000600360149054906101000a900460ff16905090565b7f000000000000000000000000000000000000000000000000000000000000000073ffffffffffffffffffffffffffffffffffffffff163373ffffffffffffffffffffffffffffffffffffffff161461056957337f00000000000000000000000000000000000000000000000000000000000000006040517f1cf993f4000000000000000000000000000000000000000000000000000000008152600401610560929190611715565b60405180910390fd5b6105738282610ddd565b5050565b7f00000000000000000000000000000000000000000000000000000000000000003410156105d1576040517fbd4e069500000000000000000000000000000000000000000000000000000000815260040160405180910390fd5b600060018111156105e5576105e4611b5d565b5b600360149054906101000a900460ff16600181111561060757610606611b5d565b5b1461063e576040517f1425571c00000000000000000000000000000000000000000000000000000000815260040160405180910390fd5b6002339080600181540180825580915050600190039060005260206000200160009091909190916101000a81548173ffffffffffffffffffffffffffffffffffffffff021916908373ffffffffffffffffffffffffffffffffffffffff1602179055503373ffffffffffffffffffffffffffffffffffffffff167f0805e1d667bddb8a95f0f09880cf94f403fb596ce79928d9f29b74203ba284d460405160405180910390a2565b6000600454905090565b600061070a6040518060200160405280600081525061095e565b509050806107795747600280549050600360149054906101000a900460ff16600181111561073b5761073a611b5d565b5b6040517f584327aa0000000000000000000000000000000000000000000000000000000081526004016107709392919061187b565b60405180910390fd5b6001600360146101000a81548160ff0219169083600181111561079f5761079e611b5d565b5b021790555060007f000000000000000000000000000000000000000000000000000000000000000073ffffffffffffffffffffffffffffffffffffffff16635d3b1d307f00000000000000000000000000000000000000000000000000000000000000007f000000000000000000000000000000000000000000000000000000000000000060037f000000000000000000000000000000000000000000000000000000000000000060016040518663ffffffff1660e01b81526004016108699594939291906117b2565b602060405180830381600087803b15801561088357600080fd5b505af1158015610897573d6000803e3d6000fd5b505050506040513d601f19601f820116820180604052508101906108bb9190611518565b9050807fcd6e45c8998311cab7e9d4385596cac867e20a0587194b954fa3a731c93ce78b60405160405180910390a250505050565b6000600360009054906101000a900473ffffffffffffffffffffffffffffffffffffffff16905090565b6000600163ffffffff16905090565b60007f0000000000000000000000000000000000000000000000000000000000000000905090565b6000600361ffff16905090565b600060606000600360149054906101000a900460ff16600181111561098657610985611b5d565b5b6000600181111561099a57610999611b5d565b5b14905060007f0000000000000000000000000000000000000000000000000000000000000000600454426109ce919061196c565b119050600080600280549050119050600080471190508380156109ee5750825b80156109f75750815b8015610a005750805b955050505050915091565b610a13611010565b610a1d600061108e565b565b600160009054906101000a900473ffffffffffffffffffffffffffffffffffffffff1681565b610a4d611010565b600081905060008173ffffffffffffffffffffffffffffffffffffffff166370a08231306040518263ffffffff1660e01b8152600401610a8d91906116df565b60206040518083038186803b158015610aa557600080fd5b505afa158015610ab9573d6000803e3d6000fd5b505050506040513d601f19601f82011682018060405250810190610add9190611518565b90508173ffffffffffffffffffffffffffffffffffffffff1663a9059cbb610b03610c13565b836040518363ffffffff1660e01b8152600401610b2192919061173e565b602060405180830381600087803b158015610b3b57600080fd5b505af1158015610b4f573d6000803e3d6000fd5b505050506040513d601f19601f82011682018060405250810190610b739190611428565b50505050565b60008082905060008173ffffffffffffffffffffffffffffffffffffffff166370a08231306040518263ffffffff1660e01b8152600401610bba91906116df565b60206040518083038186803b158015610bd257600080fd5b505afa158015610be6573d6000803e3d6000fd5b505050506040513d601f19601f82011682018060405250810190610c0a9190611518565b14915050919050565b60008060009054906101000a900473ffffffffffffffffffffffffffffffffffffffff16905090565b6000600280549050905090565b610c51611010565b600081610cb157610c83600160009054906101000a900473ffffffffffffffffffffffffffffffffffffffff16610a45565b610cae600160009054906101000a900473ffffffffffffffffffffffffffffffffffffffff16610b79565b90505b8080610cba5750815b15610cdf57610cc7610c13565b73ffffffffffffffffffffffffffffffffffffffff16ff5b6040517fd10f364000000000000000000000000000000000000000000000000000000000815260040160405180910390fd5b600060028281548110610d2757610d26611b8c565b5b9060005260206000200160009054906101000a900473ffffffffffffffffffffffffffffffffffffffff169050919050565b610d61611010565b600073ffffffffffffffffffffffffffffffffffffffff168173ffffffffffffffffffffffffffffffffffffffff161415610dd1576040517f08c379a0000000000000000000000000000000000000000000000000000000008152600401610dc890611820565b60405180910390fd5b610dda8161108e565b50565b600060028054905082600081518110610df957610df8611b8c565b5b6020026020010151610e0b9190611ace565b9050600060028281548110610e2357610e22611b8c565b5b9060005260206000200160009054906101000a900473ffffffffffffffffffffffffffffffffffffffff16905080600360006101000a81548173ffffffffffffffffffffffffffffffffffffffff021916908373ffffffffffffffffffffffffffffffffffffffff1602179055506000600360146101000a81548160ff02191690836001811115610eb757610eb6611b5d565b5b0217905550600067ffffffffffffffff811115610ed757610ed6611bbb565b5b604051908082528060200260200182016040528015610f055781602001602082028036833780820191505090505b5060029080519060200190610f1b92919061115a565b504260048190555060008173ffffffffffffffffffffffffffffffffffffffff1647604051610f49906116ca565b60006040518083038185875af1925050503d8060008114610f86576040519150601f19603f3d011682016040523d82523d6000602084013e610f8b565b606091505b5050905080610fc6576040517fa1d04b3900000000000000000000000000000000000000000000000000000000815260040160405180910390fd5b8173ffffffffffffffffffffffffffffffffffffffff167f5b690ec4a06fe979403046eaeea5b3ce38524683c3001f662c8b5a829632f7df60405160405180910390a25050505050565b611018611152565b73ffffffffffffffffffffffffffffffffffffffff16611036610c13565b73ffffffffffffffffffffffffffffffffffffffff161461108c576040517f08c379a000000000000000000000000000000000000000000000000000000000815260040161108390611840565b60405180910390fd5b565b60008060009054906101000a900473ffffffffffffffffffffffffffffffffffffffff169050816000806101000a81548173ffffffffffffffffffffffffffffffffffffffff021916908373ffffffffffffffffffffffffffffffffffffffff1602179055508173ffffffffffffffffffffffffffffffffffffffff168173ffffffffffffffffffffffffffffffffffffffff167f8be0079c531659141344cd1fd0a4f28419497f9722a3daafe3b4186f6b6457e060405160405180910390a35050565b600033905090565b8280548282559060005260206000209081019282156111d3579160200282015b828111156111d25782518260006101000a81548173ffffffffffffffffffffffffffffffffffffffff021916908373ffffffffffffffffffffffffffffffffffffffff1602179055509160200191906001019061117a565b5b5090506111e091906111e4565b5090565b5b808211156111fd5760008160009055506001016111e5565b5090565b600061121461120f846118d7565b6118b2565b9050808382526020820190508285602086028201111561123757611236611bf4565b5b60005b85811015611267578161124d88826113a4565b84526020840193506020830192505060018101905061123a565b5050509392505050565b600061128461127f84611903565b6118b2565b9050828152602081018484840111156112a05761129f611bf9565b5b6112ab848285611a5b565b509392505050565b6000813590506112c281611ca8565b92915050565b600082601f8301126112dd576112dc611bef565b5b81356112ed848260208601611201565b91505092915050565b60008135905061130581611cbf565b92915050565b60008151905061131a81611cbf565b92915050565b60008083601f84011261133657611335611bef565b5b8235905067ffffffffffffffff81111561135357611352611bea565b5b60208301915083600182028301111561136f5761136e611bf4565b5b9250929050565b600082601f83011261138b5761138a611bef565b5b813561139b848260208601611271565b91505092915050565b6000813590506113b381611cd6565b92915050565b6000815190506113c881611cd6565b92915050565b6000602082840312156113e4576113e3611c03565b5b60006113f2848285016112b3565b91505092915050565b60006020828403121561141157611410611c03565b5b600061141f848285016112f6565b91505092915050565b60006020828403121561143e5761143d611c03565b5b600061144c8482850161130b565b91505092915050565b6000806020838503121561146c5761146b611c03565b5b600083013567ffffffffffffffff81111561148a57611489611bfe565b5b61149685828601611320565b92509250509250929050565b6000602082840312156114b8576114b7611c03565b5b600082013567ffffffffffffffff8111156114d6576114d5611bfe565b5b6114e284828501611376565b91505092915050565b60006020828403121561150157611500611c03565b5b600061150f848285016113a4565b91505092915050565b60006020828403121561152e5761152d611c03565b5b600061153c848285016113b9565b91505092915050565b6000806040838503121561155c5761155b611c03565b5b600061156a858286016113a4565b925050602083013567ffffffffffffffff81111561158b5761158a611bfe565b5b611597858286016112c8565b9150509250929050565b6115aa816119b2565b82525050565b6115b9816119a0565b82525050565b6115c8816119c4565b82525050565b6115d7816119d0565b82525050565b60006115e882611934565b6115f2818561193f565b9350611602818560208601611a6a565b61160b81611c08565b840191505092915050565b61161f81611a49565b82525050565b600061163260268361195b565b915061163d82611c19565b604082019050919050565b600061165560208361195b565b915061166082611c68565b602082019050919050565b6000611678600083611950565b915061168382611c91565b600082019050919050565b611697816119ed565b82525050565b6116a681611a1b565b82525050565b6116b581611a25565b82525050565b6116c481611a35565b82525050565b60006116d58261166b565b9150819050919050565b60006020820190506116f460008301846115b0565b92915050565b600060208201905061170f60008301846115a1565b92915050565b600060408201905061172a60008301856115b0565b61173760208301846115b0565b9392505050565b600060408201905061175360008301856115b0565b611760602083018461169d565b9392505050565b600060208201905061177c60008301846115bf565b92915050565b600060408201905061179760008301856115bf565b81810360208301526117a981846115dd565b90509392505050565b600060a0820190506117c760008301886115ce565b6117d460208301876116bb565b6117e1604083018661168e565b6117ee60608301856116ac565b6117fb60808301846116ac565b9695505050505050565b600060208201905061181a6000830184611616565b92915050565b6000602082019050818103600083015261183981611625565b9050919050565b6000602082019050818103600083015261185981611648565b9050919050565b6000602082019050611875600083018461169d565b92915050565b6000606082019050611890600083018661169d565b61189d602083018561169d565b6118aa604083018461169d565b949350505050565b60006118bc6118cd565b90506118c88282611a9d565b919050565b6000604051905090565b600067ffffffffffffffff8211156118f2576118f1611bbb565b5b602082029050602081019050919050565b600067ffffffffffffffff82111561191e5761191d611bbb565b5b61192782611c08565b9050602081019050919050565b600081519050919050565b600082825260208201905092915050565b600081905092915050565b600082825260208201905092915050565b600061197782611a1b565b915061198283611a1b565b92508282101561199557611994611aff565b5b828203905092915050565b60006119ab826119fb565b9050919050565b60006119bd826119fb565b9050919050565b60008115159050919050565b6000819050919050565b60008190506119e882611c94565b919050565b600061ffff82169050919050565b600073ffffffffffffffffffffffffffffffffffffffff82169050919050565b6000819050919050565b600063ffffffff82169050919050565b600067ffffffffffffffff82169050919050565b6000611a54826119da565b9050919050565b82818337600083830152505050565b60005b83811015611a88578082015181840152602081019050611a6d565b83811115611a97576000848401525b50505050565b611aa682611c08565b810181811067ffffffffffffffff82111715611ac557611ac4611bbb565b5b80604052505050565b6000611ad982611a1b565b9150611ae483611a1b565b925082611af457611af3611b2e565b5b828206905092915050565b7f4e487b7100000000000000000000000000000000000000000000000000000000600052601160045260246000fd5b7f4e487b7100000000000000000000000000000000000000000000000000000000600052601260045260246000fd5b7f4e487b7100000000000000000000000000000000000000000000000000000000600052602160045260246000fd5b7f4e487b7100000000000000000000000000000000000000000000000000000000600052603260045260246000fd5b7f4e487b7100000000000000000000000000000000000000000000000000000000600052604160045260246000fd5b600080fd5b600080fd5b600080fd5b600080fd5b600080fd5b600080fd5b6000601f19601f8301169050919050565b7f4f776e61626c653a206e6577206f776e657220697320746865207a65726f206160008201527f6464726573730000000000000000000000000000000000000000000000000000602082015250565b7f4f776e61626c653a2063616c6c6572206973206e6f7420746865206f776e6572600082015250565b50565b60028110611ca557611ca4611b5d565b5b50565b611cb1816119a0565b8114611cbc57600080fd5b50565b611cc8816119c4565b8114611cd357600080fd5b50565b611cdf81611a1b565b8114611cea57600080fd5b5056fea2646970667358221220f1b6119168674e265de3899992e166445578594a099ae7148a28825f64a952dd64736f6c63430008070033",
  "devdoc": {
    "author": "popelev",
    "details": "This implements Chainlink VRF v2 and chainlink Keepers",
    "kind": "dev",
    "methods": {
      "checkUpkeep(bytes)": {
        "details": "This is the function that the CainLink Keeper nodes call  they look for the 'unkeeperNeeded' to return true.  The folowing should be true in order to return true:  1. Our time interval should have passed.  2. The lottery should have at least 1 playear and have some ETH.  3. Our subscription is funded with LINK.  4. The lotery should be an \"open\" state."
      },
      "owner()": {
        "details": "Returns the address of the current owner."
      },
      "renounceOwnership()": {
        "details": "Leaves the contract without owner. It will not be possible to call `onlyOwner` functions anymore. Can only be called by the current owner. NOTE: Renouncing ownership will leave the contract without an owner, thereby removing any functionality that is only available to the owner."
      },
      "transferOwnership(address)": {
        "details": "Transfers ownership of the contract to a new account (`newOwner`). Can only be called by the current owner."
      }
    },
    "title": "A sample Raffle Contract",
    "version": 1
  },
  "userdoc": {
    "kind": "user",
    "methods": {},
    "notice": "This is for creating an untamperable decentralized smart contract",
    "version": 1
  },
  "storageLayout": {
    "storage": [
      {
        "astId": 173,
        "contract": "contracts/Raffle.sol:Raffle",
        "label": "_owner",
        "offset": 0,
        "slot": "0",
        "type": "t_address"
      },
      {
        "astId": 820,
        "contract": "contracts/Raffle.sol:Raffle",
        "label": "defaultToken",
        "offset": 0,
        "slot": "1",
        "type": "t_address_payable"
      },
      {
        "astId": 413,
        "contract": "contracts/Raffle.sol:Raffle",
        "label": "s_players",
        "offset": 0,
        "slot": "2",
        "type": "t_array(t_address_payable)dyn_storage"
      },
      {
        "astId": 430,
        "contract": "contracts/Raffle.sol:Raffle",
        "label": "s_recentWinner",
        "offset": 0,
        "slot": "3",
        "type": "t_address"
      },
      {
        "astId": 433,
        "contract": "contracts/Raffle.sol:Raffle",
        "label": "s_raffleState",
        "offset": 20,
        "slot": "3",
        "type": "t_enum(RaffleState)408"
      },
      {
        "astId": 435,
        "contract": "contracts/Raffle.sol:Raffle",
        "label": "s_lastTimeStamp",
        "offset": 0,
        "slot": "4",
        "type": "t_uint256"
      }
    ],
    "types": {
      "t_address": {
        "encoding": "inplace",
        "label": "address",
        "numberOfBytes": "20"
      },
      "t_address_payable": {
        "encoding": "inplace",
        "label": "address payable",
        "numberOfBytes": "20"
      },
      "t_array(t_address_payable)dyn_storage": {
        "base": "t_address_payable",
        "encoding": "dynamic_array",
        "label": "address payable[]",
        "numberOfBytes": "32"
      },
      "t_enum(RaffleState)408": {
        "encoding": "inplace",
        "label": "enum Raffle.RaffleState",
        "numberOfBytes": "1"
      },
      "t_uint256": {
        "encoding": "inplace",
        "label": "uint256",
        "numberOfBytes": "32"
      }
    }
  }
}