{
  "address": "0xDc64a140Aa3E981100a9becA4E685f962f0cF6C9",
  "abi": [
    {
      "inputs": [
        {
          "internalType": "address",
          "name": "vrfCoordinatorToken",
          "type": "address"
        },
        {
          "internalType": "address",
          "name": "vrfCoordinator",
          "type": "address"
        },
        {
          "internalType": "uint256",
          "name": "entranceFee",
          "type": "uint256"
        },
        {
          "internalType": "bytes32",
          "name": "gasLane",
          "type": "bytes32"
        },
        {
          "internalType": "uint64",
          "name": "subscriptionId",
          "type": "uint64"
        },
        {
          "internalType": "uint32",
          "name": "callbackGasLimit",
          "type": "uint32"
        },
        {
          "internalType": "uint256",
          "name": "interval",
          "type": "uint256"
        }
      ],
      "stateMutability": "nonpayable",
      "type": "constructor"
    },
    {
      "inputs": [
        {
          "internalType": "address",
          "name": "have",
          "type": "address"
        },
        {
          "internalType": "address",
          "name": "want",
          "type": "address"
        }
      ],
      "name": "OnlyCoordinatorCanFulfill",
      "type": "error"
    },
    {
      "inputs": [],
      "name": "Raffle__NotEnoughETHEntered",
      "type": "error"
    },
    {
      "inputs": [],
      "name": "Raffle__NotOpen",
      "type": "error"
    },
    {
      "inputs": [],
      "name": "Raffle__TransferFailed",
      "type": "error"
    },
    {
      "inputs": [
        {
          "internalType": "uint256",
          "name": "currentBalance",
          "type": "uint256"
        },
        {
          "internalType": "uint256",
          "name": "numPlayers",
          "type": "uint256"
        },
        {
          "internalType": "uint256",
          "name": "raffleState",
          "type": "uint256"
        }
      ],
      "name": "Raffle__UpkeepNotNeeded",
      "type": "error"
    },
    {
      "anonymous": false,
      "inputs": [
        {
          "indexed": true,
          "internalType": "address",
          "name": "previousOwner",
          "type": "address"
        },
        {
          "indexed": true,
          "internalType": "address",
          "name": "newOwner",
          "type": "address"
        }
      ],
      "name": "OwnershipTransferred",
      "type": "event"
    },
    {
      "anonymous": false,
      "inputs": [
        {
          "indexed": true,
          "internalType": "address",
          "name": "player",
          "type": "address"
        }
      ],
      "name": "RaffleEnter",
      "type": "event"
    },
    {
      "anonymous": false,
      "inputs": [
        {
          "indexed": true,
          "internalType": "uint256",
          "name": "requestId",
          "type": "uint256"
        }
      ],
      "name": "RequestedRaffleWinner",
      "type": "event"
    },
    {
      "anonymous": false,
      "inputs": [
        {
          "indexed": false,
          "internalType": "string",
          "name": "",
          "type": "string"
        }
      ],
      "name": "Selfdistruct",
      "type": "event"
    },
    {
      "anonymous": false,
      "inputs": [
        {
          "indexed": true,
          "internalType": "address",
          "name": "winner",
          "type": "address"
        }
      ],
      "name": "WinnerPicked",
      "type": "event"
    },
    {
      "inputs": [
        {
          "internalType": "bytes",
          "name": "",
          "type": "bytes"
        }
      ],
      "name": "checkUpkeep",
      "outputs": [
        {
          "internalType": "bool",
          "name": "upkeepNeeded",
          "type": "bool"
        },
        {
          "internalType": "bytes",
          "name": "",
          "type": "bytes"
        }
      ],
      "stateMutability": "view",
      "type": "function"
    },
    {
      "inputs": [],
      "name": "defaultToken",
      "outputs": [
        {
          "internalType": "address payable",
          "name": "",
          "type": "address"
        }
      ],
      "stateMutability": "view",
      "type": "function"
    },
    {
      "inputs": [
        {
          "internalType": "address",
          "name": "_tokenContract",
          "type": "address"
        }
      ],
      "name": "emptyERC20",
      "outputs": [
        {
          "internalType": "bool",
          "name": "",
          "type": "bool"
        }
      ],
      "stateMutability": "view",
      "type": "function"
    },
    {
      "inputs": [],
      "name": "enterRaffle",
      "outputs": [],
      "stateMutability": "payable",
      "type": "function"
    },
    {
      "inputs": [],
      "name": "getEntranceFee",
      "outputs": [
        {
          "internalType": "uint256",
          "name": "",
          "type": "uint256"
        }
      ],
      "stateMutability": "view",
      "type": "function"
    },
    {
      "inputs": [],
      "name": "getInterval",
      "outputs": [
        {
          "internalType": "uint256",
          "name": "",
          "type": "uint256"
        }
      ],
      "stateMutability": "view",
      "type": "function"
    },
    {
      "inputs": [],
      "name": "getLatestTimeStamp",
      "outputs": [
        {
          "internalType": "uint256",
          "name": "",
          "type": "uint256"
        }
      ],
      "stateMutability": "view",
      "type": "function"
    },
    {
      "inputs": [],
      "name": "getNumWords",
      "outputs": [
        {
          "internalType": "uint256",
          "name": "",
          "type": "uint256"
        }
      ],
      "stateMutability": "pure",
      "type": "function"
    },
    {
      "inputs": [],
      "name": "getNumberOfPlayer",
      "outputs": [
        {
          "internalType": "uint256",
          "name": "",
          "type": "uint256"
        }
      ],
      "stateMutability": "view",
      "type": "function"
    },
    {
      "inputs": [
        {
          "internalType": "uint256",
          "name": "index",
          "type": "uint256"
        }
      ],
      "name": "getPlayer",
      "outputs": [
        {
          "internalType": "address",
          "name": "",
          "type": "address"
        }
      ],
      "stateMutability": "view",
      "type": "function"
    },
    {
      "inputs": [],
      "name": "getRaffleState",
      "outputs": [
        {
          "internalType": "enum Raffle.RaffleState",
          "name": "",
          "type": "uint8"
        }
      ],
      "stateMutability": "view",
      "type": "function"
    },
    {
      "inputs": [],
      "name": "getRecentWinner",
      "outputs": [
        {
          "internalType": "address",
          "name": "",
          "type": "address"
        }
      ],
      "stateMutability": "view",
      "type": "function"
    },
    {
      "inputs": [],
      "name": "getRequestConfirmations",
      "outputs": [
        {
          "internalType": "uint256",
          "name": "",
          "type": "uint256"
        }
      ],
      "stateMutability": "pure",
      "type": "function"
    },
    {
      "inputs": [],
      "name": "getVRFCoordinatorAddress",
      "outputs": [
        {
          "internalType": "address",
          "name": "",
          "type": "address"
        }
      ],
      "stateMutability": "view",
      "type": "function"
    },
    {
      "inputs": [],
      "name": "owner",
      "outputs": [
        {
          "internalType": "address",
          "name": "",
          "type": "address"
        }
      ],
      "stateMutability": "view",
      "type": "function"
    },
    {
      "inputs": [
        {
          "internalType": "bytes",
          "name": "",
          "type": "bytes"
        }
      ],
      "name": "performUpkeep",
      "outputs": [],
      "stateMutability": "nonpayable",
      "type": "function"
    },
    {
      "inputs": [
        {
          "internalType": "uint256",
          "name": "requestId",
          "type": "uint256"
        },
        {
          "internalType": "uint256[]",
          "name": "randomWords",
          "type": "uint256[]"
        }
      ],
      "name": "rawFulfillRandomWords",
      "outputs": [],
      "stateMutability": "nonpayable",
      "type": "function"
    },
    {
      "inputs": [],
      "name": "renounceOwnership",
      "outputs": [],
      "stateMutability": "nonpayable",
      "type": "function"
    },
    {
      "inputs": [
        {
          "internalType": "bool",
          "name": "force",
          "type": "bool"
        }
      ],
      "name": "suicide",
      "outputs": [],
      "stateMutability": "nonpayable",
      "type": "function"
    },
    {
      "inputs": [
        {
          "internalType": "address",
          "name": "newOwner",
          "type": "address"
        }
      ],
      "name": "transferOwnership",
      "outputs": [],
      "stateMutability": "nonpayable",
      "type": "function"
    },
    {
      "inputs": [
        {
          "internalType": "address",
          "name": "_tokenContract",
          "type": "address"
        }
      ],
      "name": "withdrawToken",
      "outputs": [],
      "stateMutability": "nonpayable",
      "type": "function"
    }
  ],
  "transactionHash": "0x03efbd024909b113c0463d12f557a6140032a3f097187c8d94134e432d2588db",
  "args": [
    "0x5FbDB2315678afecb367f032d93F642f64180aa3",
    "0xe7f1725E7734CE288F8367e1Bb143E90bb3F0512",
    "10000000000000000",
    "0xd89b2bf150e3b9e13446986e571fb9cab24b13cea0a43ea20a6049a85cc807cc",
    "1",
    "500000",
    "30"
  ],
  "numDeployments": 1,
  "solcInputHash": "0bcd31e11410eb9ad04ab55b4ed647f9",
  "bytecode": "0x6101606040523480156200001257600080fd5b5060405162002437380380620024378339818101604052810190620000389190620002dd565b86868073ffffffffffffffffffffffffffffffffffffffff1660808173ffffffffffffffffffffffffffffffffffffffff1660601b815250505062000092620000866200019e60201b60201c565b620001a660201b60201c565b80600160006101000a81548173ffffffffffffffffffffffffffffffffffffffff021916908373ffffffffffffffffffffffffffffffffffffffff160217905550508573ffffffffffffffffffffffffffffffffffffffff1660c08173ffffffffffffffffffffffffffffffffffffffff1660601b815250508360e081815250508061014081815250508267ffffffffffffffff166101008167ffffffffffffffff1660c01b815250508460a081815250508163ffffffff166101208163ffffffff1660e01b815250506000600360146101000a81548160ff02191690836001811115620001855762000184620003fc565b5b02179055504260048190555050505050505050620004b2565b600033905090565b60008060009054906101000a900473ffffffffffffffffffffffffffffffffffffffff169050816000806101000a81548173ffffffffffffffffffffffffffffffffffffffff021916908373ffffffffffffffffffffffffffffffffffffffff1602179055508173ffffffffffffffffffffffffffffffffffffffff168173ffffffffffffffffffffffffffffffffffffffff167f8be0079c531659141344cd1fd0a4f28419497f9722a3daafe3b4186f6b6457e060405160405180910390a35050565b6000815190506200027b8162000430565b92915050565b60008151905062000292816200044a565b92915050565b600081519050620002a98162000464565b92915050565b600081519050620002c0816200047e565b92915050565b600081519050620002d78162000498565b92915050565b600080600080600080600060e0888a031215620002ff57620002fe6200042b565b5b60006200030f8a828b016200026a565b9750506020620003228a828b016200026a565b9650506040620003358a828b0162000298565b9550506060620003488a828b0162000281565b94505060806200035b8a828b01620002c6565b93505060a06200036e8a828b01620002af565b92505060c0620003818a828b0162000298565b91505092959891949750929550565b60006200039d82620003ae565b9050919050565b6000819050919050565b600073ffffffffffffffffffffffffffffffffffffffff82169050919050565b6000819050919050565b600063ffffffff82169050919050565b600067ffffffffffffffff82169050919050565b7f4e487b7100000000000000000000000000000000000000000000000000000000600052602160045260246000fd5b600080fd5b6200043b8162000390565b81146200044757600080fd5b50565b6200045581620003a4565b81146200046157600080fd5b50565b6200046f81620003ce565b81146200047b57600080fd5b50565b6200048981620003d8565b81146200049557600080fd5b50565b620004a381620003e8565b8114620004af57600080fd5b50565b60805160601c60a05160c05160601c60e0516101005160c01c6101205160e01c61014051611f0262000535600039600081816109d70152610cb10152600061085e0152600061083b0152600061081a0152600081816107de01526109630152600081816104b201526105af0152600081816104ef01526105430152611f026000f3fe60806040526004361061012a5760003560e01c80636e04ff0d116100ab5780638da5cb5b1161006f5780638da5cb5b1461039e57806391ad27b4146103c9578063bd4d025c146103f4578063c62731411461041f578063e55ae4e814610448578063f2fde38b146104855761012a565b80636e04ff0d146102b8578063715018a6146102f657806374c13fda1461030d5780638947606914610338578063899a109f146103615761012a565b80634585e33b116100f25780634585e33b146101e3578063473f1ddc1461020c57806353a2c19a1461023757806357bfc61c146102625780635f1b0fd81461028d5761012a565b806309bc33a71461012f578063115cbaf51461015a5780631fe543e3146101855780632cfcc539146101ae578063320229eb146101b8575b600080fd5b34801561013b57600080fd5b506101446104ae565b6040516101519190611a0b565b60405180910390f35b34801561016657600080fd5b5061016f6104d6565b60405161017c919061196e565b60405180910390f35b34801561019157600080fd5b506101ac60048036038101906101a79190611652565b6104ed565b005b6101b66105ad565b005b3480156101c457600080fd5b506101cd61071c565b6040516101da9190611a0b565b60405180910390f35b3480156101ef57600080fd5b5061020a60048036038101906102059190611562565b610726565b005b34801561021857600080fd5b50610221610926565b60405161022e9190611848565b60405180910390f35b34801561024357600080fd5b5061024c610950565b6040516102599190611a0b565b60405180910390f35b34801561026e57600080fd5b5061027761095f565b6040516102849190611848565b60405180910390f35b34801561029957600080fd5b506102a2610987565b6040516102af9190611a0b565b60405180910390f35b3480156102c457600080fd5b506102df60048036038101906102da91906115af565b610994565b6040516102ed9291906118eb565b60405180910390f35b34801561030257600080fd5b5061030b610a7c565b005b34801561031957600080fd5b50610322610a90565b60405161032f9190611863565b60405180910390f35b34801561034457600080fd5b5061035f600480360381019061035a91906114db565b610ab6565b005b34801561036d57600080fd5b50610388600480360381019061038391906114db565b610bea565b60405161039591906118d0565b60405180910390f35b3480156103aa57600080fd5b506103b3610c84565b6040516103c09190611848565b60405180910390f35b3480156103d557600080fd5b506103de610cad565b6040516103eb9190611a0b565b60405180910390f35b34801561040057600080fd5b50610409610cd5565b6040516104169190611a0b565b60405180910390f35b34801561042b57600080fd5b5061044660048036038101906104419190611508565b610ce2565b005b34801561045457600080fd5b5061046f600480360381019061046a91906115f8565b610e1e565b60405161047c9190611848565b60405180910390f35b34801561049157600080fd5b506104ac60048036038101906104a791906114db565b610e66565b005b60007f0000000000000000000000000000000000000000000000000000000000000000905090565b6000600360149054906101000a900460ff16905090565b7f000000000000000000000000000000000000000000000000000000000000000073ffffffffffffffffffffffffffffffffffffffff163373ffffffffffffffffffffffffffffffffffffffff161461059f57337f00000000000000000000000000000000000000000000000000000000000000006040517f1cf993f400000000000000000000000000000000000000000000000000000000815260040161059692919061187e565b60405180910390fd5b6105a98282610eea565b5050565b7f0000000000000000000000000000000000000000000000000000000000000000341015610607576040517fbd4e069500000000000000000000000000000000000000000000000000000000815260040160405180910390fd5b6000600181111561061b5761061a611d13565b5b600360149054906101000a900460ff16600181111561063d5761063c611d13565b5b14610674576040517f1425571c00000000000000000000000000000000000000000000000000000000815260040160405180910390fd5b6002339080600181540180825580915050600190039060005260206000200160009091909190916101000a81548173ffffffffffffffffffffffffffffffffffffffff021916908373ffffffffffffffffffffffffffffffffffffffff1602179055503373ffffffffffffffffffffffffffffffffffffffff167f0805e1d667bddb8a95f0f09880cf94f403fb596ce79928d9f29b74203ba284d460405160405180910390a2565b6000600454905090565b600061074060405180602001604052806000815250610994565b509050806107af5747600280549050600360149054906101000a900460ff16600181111561077157610770611d13565b5b6040517f584327aa0000000000000000000000000000000000000000000000000000000081526004016107a693929190611a26565b60405180910390fd5b6001600360146101000a81548160ff021916908360018111156107d5576107d4611d13565b5b021790555060007f000000000000000000000000000000000000000000000000000000000000000073ffffffffffffffffffffffffffffffffffffffff16635d3b1d307f00000000000000000000000000000000000000000000000000000000000000007f000000000000000000000000000000000000000000000000000000000000000060037f000000000000000000000000000000000000000000000000000000000000000060016040518663ffffffff1660e01b815260040161089f95949392919061191b565b602060405180830381600087803b1580156108b957600080fd5b505af11580156108cd573d6000803e3d6000fd5b505050506040513d601f19601f820116820180604052508101906108f19190611625565b9050807fcd6e45c8998311cab7e9d4385596cac867e20a0587194b954fa3a731c93ce78b60405160405180910390a250505050565b6000600360009054906101000a900473ffffffffffffffffffffffffffffffffffffffff16905090565b6000600163ffffffff16905090565b60007f0000000000000000000000000000000000000000000000000000000000000000905090565b6000600361ffff16905090565b600060606000600360149054906101000a900460ff1660018111156109bc576109bb611d13565b5b600060018111156109d0576109cf611d13565b5b14905060007f000000000000000000000000000000000000000000000000000000000000000060045442610a049190611b22565b11905060008060028054905011905060008047119050828015610a245750835b8015610a2d5750805b8015610a365750815b9550856040518060400160405280600381526020017f30783000000000000000000000000000000000000000000000000000000000008152509550955050505050915091565b610a8461111d565b610a8e600061119b565b565b600160009054906101000a900473ffffffffffffffffffffffffffffffffffffffff1681565b610abe61111d565b600081905060008173ffffffffffffffffffffffffffffffffffffffff166370a08231306040518263ffffffff1660e01b8152600401610afe9190611848565b60206040518083038186803b158015610b1657600080fd5b505afa158015610b2a573d6000803e3d6000fd5b505050506040513d601f19601f82011682018060405250810190610b4e9190611625565b90508173ffffffffffffffffffffffffffffffffffffffff1663a9059cbb610b74610c84565b836040518363ffffffff1660e01b8152600401610b929291906118a7565b602060405180830381600087803b158015610bac57600080fd5b505af1158015610bc0573d6000803e3d6000fd5b505050506040513d601f19601f82011682018060405250810190610be49190611535565b50505050565b60008082905060008173ffffffffffffffffffffffffffffffffffffffff166370a08231306040518263ffffffff1660e01b8152600401610c2b9190611848565b60206040518083038186803b158015610c4357600080fd5b505afa158015610c57573d6000803e3d6000fd5b505050506040513d601f19601f82011682018060405250810190610c7b9190611625565b14915050919050565b60008060009054906101000a900473ffffffffffffffffffffffffffffffffffffffff16905090565b60007f0000000000000000000000000000000000000000000000000000000000000000905090565b6000600280549050905090565b610cea61111d565b600081610d4a57610d1c600160009054906101000a900473ffffffffffffffffffffffffffffffffffffffff16610ab6565b610d47600160009054906101000a900473ffffffffffffffffffffffffffffffffffffffff16610bea565b90505b8080610d535750815b610d92576040517f08c379a0000000000000000000000000000000000000000000000000000000008152600401610d89906119cb565b60405180910390fd5b7ffb3d2b53dec98ef4b46cc82be9c705125ff09354c561c337dbc4692ede1d8dbc6040518060400160405280600681526020017f4279654279650000000000000000000000000000000000000000000000000000815250604051610df69190611989565b60405180910390a1610e06610c84565b73ffffffffffffffffffffffffffffffffffffffff16ff5b600060028281548110610e3457610e33611d42565b5b9060005260206000200160009054906101000a900473ffffffffffffffffffffffffffffffffffffffff169050919050565b610e6e61111d565b600073ffffffffffffffffffffffffffffffffffffffff168173ffffffffffffffffffffffffffffffffffffffff161415610ede576040517f08c379a0000000000000000000000000000000000000000000000000000000008152600401610ed5906119ab565b60405180910390fd5b610ee78161119b565b50565b600060028054905082600081518110610f0657610f05611d42565b5b6020026020010151610f189190611c84565b9050600060028281548110610f3057610f2f611d42565b5b9060005260206000200160009054906101000a900473ffffffffffffffffffffffffffffffffffffffff16905080600360006101000a81548173ffffffffffffffffffffffffffffffffffffffff021916908373ffffffffffffffffffffffffffffffffffffffff1602179055506000600360146101000a81548160ff02191690836001811115610fc457610fc3611d13565b5b0217905550600067ffffffffffffffff811115610fe457610fe3611d71565b5b6040519080825280602002602001820160405280156110125781602001602082028036833780820191505090505b5060029080519060200190611028929190611267565b504260048190555060008173ffffffffffffffffffffffffffffffffffffffff164760405161105690611833565b60006040518083038185875af1925050503d8060008114611093576040519150601f19603f3d011682016040523d82523d6000602084013e611098565b606091505b50509050806110d3576040517fa1d04b3900000000000000000000000000000000000000000000000000000000815260040160405180910390fd5b8173ffffffffffffffffffffffffffffffffffffffff167f5b690ec4a06fe979403046eaeea5b3ce38524683c3001f662c8b5a829632f7df60405160405180910390a25050505050565b61112561125f565b73ffffffffffffffffffffffffffffffffffffffff16611143610c84565b73ffffffffffffffffffffffffffffffffffffffff1614611199576040517f08c379a0000000000000000000000000000000000000000000000000000000008152600401611190906119eb565b60405180910390fd5b565b60008060009054906101000a900473ffffffffffffffffffffffffffffffffffffffff169050816000806101000a81548173ffffffffffffffffffffffffffffffffffffffff021916908373ffffffffffffffffffffffffffffffffffffffff1602179055508173ffffffffffffffffffffffffffffffffffffffff168173ffffffffffffffffffffffffffffffffffffffff167f8be0079c531659141344cd1fd0a4f28419497f9722a3daafe3b4186f6b6457e060405160405180910390a35050565b600033905090565b8280548282559060005260206000209081019282156112e0579160200282015b828111156112df5782518260006101000a81548173ffffffffffffffffffffffffffffffffffffffff021916908373ffffffffffffffffffffffffffffffffffffffff16021790555091602001919060010190611287565b5b5090506112ed91906112f1565b5090565b5b8082111561130a5760008160009055506001016112f2565b5090565b600061132161131c84611a82565b611a5d565b9050808382526020820190508285602086028201111561134457611343611daa565b5b60005b85811015611374578161135a88826114b1565b845260208401935060208301925050600181019050611347565b5050509392505050565b600061139161138c84611aae565b611a5d565b9050828152602081018484840111156113ad576113ac611daf565b5b6113b8848285611c11565b509392505050565b6000813590506113cf81611e87565b92915050565b600082601f8301126113ea576113e9611da5565b5b81356113fa84826020860161130e565b91505092915050565b60008135905061141281611e9e565b92915050565b60008151905061142781611e9e565b92915050565b60008083601f84011261144357611442611da5565b5b8235905067ffffffffffffffff8111156114605761145f611da0565b5b60208301915083600182028301111561147c5761147b611daa565b5b9250929050565b600082601f83011261149857611497611da5565b5b81356114a884826020860161137e565b91505092915050565b6000813590506114c081611eb5565b92915050565b6000815190506114d581611eb5565b92915050565b6000602082840312156114f1576114f0611db9565b5b60006114ff848285016113c0565b91505092915050565b60006020828403121561151e5761151d611db9565b5b600061152c84828501611403565b91505092915050565b60006020828403121561154b5761154a611db9565b5b600061155984828501611418565b91505092915050565b6000806020838503121561157957611578611db9565b5b600083013567ffffffffffffffff81111561159757611596611db4565b5b6115a38582860161142d565b92509250509250929050565b6000602082840312156115c5576115c4611db9565b5b600082013567ffffffffffffffff8111156115e3576115e2611db4565b5b6115ef84828501611483565b91505092915050565b60006020828403121561160e5761160d611db9565b5b600061161c848285016114b1565b91505092915050565b60006020828403121561163b5761163a611db9565b5b6000611649848285016114c6565b91505092915050565b6000806040838503121561166957611668611db9565b5b6000611677858286016114b1565b925050602083013567ffffffffffffffff81111561169857611697611db4565b5b6116a4858286016113d5565b9150509250929050565b6116b781611b68565b82525050565b6116c681611b56565b82525050565b6116d581611b7a565b82525050565b6116e481611b86565b82525050565b60006116f582611adf565b6116ff8185611af5565b935061170f818560208601611c20565b61171881611dbe565b840191505092915050565b61172c81611bff565b82525050565b600061173d82611aea565b6117478185611b11565b9350611757818560208601611c20565b61176081611dbe565b840191505092915050565b6000611778602683611b11565b915061178382611dcf565b604082019050919050565b600061179b601583611b11565b91506117a682611e1e565b602082019050919050565b60006117be602083611b11565b91506117c982611e47565b602082019050919050565b60006117e1600083611b06565b91506117ec82611e70565b600082019050919050565b61180081611ba3565b82525050565b61180f81611bd1565b82525050565b61181e81611bdb565b82525050565b61182d81611beb565b82525050565b600061183e826117d4565b9150819050919050565b600060208201905061185d60008301846116bd565b92915050565b600060208201905061187860008301846116ae565b92915050565b600060408201905061189360008301856116bd565b6118a060208301846116bd565b9392505050565b60006040820190506118bc60008301856116bd565b6118c96020830184611806565b9392505050565b60006020820190506118e560008301846116cc565b92915050565b600060408201905061190060008301856116cc565b818103602083015261191281846116ea565b90509392505050565b600060a08201905061193060008301886116db565b61193d6020830187611824565b61194a60408301866117f7565b6119576060830185611815565b6119646080830184611815565b9695505050505050565b60006020820190506119836000830184611723565b92915050565b600060208201905081810360008301526119a38184611732565b905092915050565b600060208201905081810360008301526119c48161176b565b9050919050565b600060208201905081810360008301526119e48161178e565b9050919050565b60006020820190508181036000830152611a04816117b1565b9050919050565b6000602082019050611a206000830184611806565b92915050565b6000606082019050611a3b6000830186611806565b611a486020830185611806565b611a556040830184611806565b949350505050565b6000611a67611a78565b9050611a738282611c53565b919050565b6000604051905090565b600067ffffffffffffffff821115611a9d57611a9c611d71565b5b602082029050602081019050919050565b600067ffffffffffffffff821115611ac957611ac8611d71565b5b611ad282611dbe565b9050602081019050919050565b600081519050919050565b600081519050919050565b600082825260208201905092915050565b600081905092915050565b600082825260208201905092915050565b6000611b2d82611bd1565b9150611b3883611bd1565b925082821015611b4b57611b4a611cb5565b5b828203905092915050565b6000611b6182611bb1565b9050919050565b6000611b7382611bb1565b9050919050565b60008115159050919050565b6000819050919050565b6000819050611b9e82611e73565b919050565b600061ffff82169050919050565b600073ffffffffffffffffffffffffffffffffffffffff82169050919050565b6000819050919050565b600063ffffffff82169050919050565b600067ffffffffffffffff82169050919050565b6000611c0a82611b90565b9050919050565b82818337600083830152505050565b60005b83811015611c3e578082015181840152602081019050611c23565b83811115611c4d576000848401525b50505050565b611c5c82611dbe565b810181811067ffffffffffffffff82111715611c7b57611c7a611d71565b5b80604052505050565b6000611c8f82611bd1565b9150611c9a83611bd1565b925082611caa57611ca9611ce4565b5b828206905092915050565b7f4e487b7100000000000000000000000000000000000000000000000000000000600052601160045260246000fd5b7f4e487b7100000000000000000000000000000000000000000000000000000000600052601260045260246000fd5b7f4e487b7100000000000000000000000000000000000000000000000000000000600052602160045260246000fd5b7f4e487b7100000000000000000000000000000000000000000000000000000000600052603260045260246000fd5b7f4e487b7100000000000000000000000000000000000000000000000000000000600052604160045260246000fd5b600080fd5b600080fd5b600080fd5b600080fd5b600080fd5b600080fd5b6000601f19601f8301169050919050565b7f4f776e61626c653a206e6577206f776e657220697320746865207a65726f206160008201527f6464726573730000000000000000000000000000000000000000000000000000602082015250565b7f546f6b656e20416d6f756e74204e6f74205a65726f0000000000000000000000600082015250565b7f4f776e61626c653a2063616c6c6572206973206e6f7420746865206f776e6572600082015250565b50565b60028110611e8457611e83611d13565b5b50565b611e9081611b56565b8114611e9b57600080fd5b50565b611ea781611b7a565b8114611eb257600080fd5b50565b611ebe81611bd1565b8114611ec957600080fd5b5056fea2646970667358221220131c1aed7d3c6e28e580864ed45e64337a11272dfb846edd0a99b1282347a5b864736f6c63430008070033",
  "devdoc": {
    "author": "popelev",
    "details": "This implements Chainlink VRF v2 and chainlink Keepers",
    "kind": "dev",
    "methods": {
      "checkUpkeep(bytes)": {
        "details": "This is the function that the CainLink Keeper nodes call  they look for the 'unkeeperNeeded' to return true.  The folowing should be true in order to return true:  1. Our time interval should have passed.  2. The lottery should have at least 1 playear and have some ETH.  3. Our subscription is funded with LINK.  4. The lotery should be an \"open\" state."
      },
      "owner()": {
        "details": "Returns the address of the current owner."
      },
      "renounceOwnership()": {
        "details": "Leaves the contract without owner. It will not be possible to call `onlyOwner` functions anymore. Can only be called by the current owner. NOTE: Renouncing ownership will leave the contract without an owner, thereby removing any functionality that is only available to the owner."
      },
      "transferOwnership(address)": {
        "details": "Transfers ownership of the contract to a new account (`newOwner`). Can only be called by the current owner."
      }
    },
    "title": "A sample Raffle Contract",
    "version": 1
  },
  "userdoc": {
    "kind": "user",
    "methods": {},
    "notice": "This is for creating an untamperable decentralized smart contract",
    "version": 1
  },
  "storageLayout": {
    "storage": [
      {
        "astId": 847,
        "contract": "contracts/Raffle.sol:Raffle",
        "label": "_owner",
        "offset": 0,
        "slot": "0",
        "type": "t_address"
      },
      {
        "astId": 2113,
        "contract": "contracts/Raffle.sol:Raffle",
        "label": "defaultToken",
        "offset": 0,
        "slot": "1",
        "type": "t_address_payable"
      },
      {
        "astId": 1698,
        "contract": "contracts/Raffle.sol:Raffle",
        "label": "s_players",
        "offset": 0,
        "slot": "2",
        "type": "t_array(t_address_payable)dyn_storage"
      },
      {
        "astId": 1715,
        "contract": "contracts/Raffle.sol:Raffle",
        "label": "s_recentWinner",
        "offset": 0,
        "slot": "3",
        "type": "t_address"
      },
      {
        "astId": 1718,
        "contract": "contracts/Raffle.sol:Raffle",
        "label": "s_raffleState",
        "offset": 20,
        "slot": "3",
        "type": "t_enum(RaffleState)1693"
      },
      {
        "astId": 1720,
        "contract": "contracts/Raffle.sol:Raffle",
        "label": "s_lastTimeStamp",
        "offset": 0,
        "slot": "4",
        "type": "t_uint256"
      }
    ],
    "types": {
      "t_address": {
        "encoding": "inplace",
        "label": "address",
        "numberOfBytes": "20"
      },
      "t_address_payable": {
        "encoding": "inplace",
        "label": "address payable",
        "numberOfBytes": "20"
      },
      "t_array(t_address_payable)dyn_storage": {
        "base": "t_address_payable",
        "encoding": "dynamic_array",
        "label": "address payable[]",
        "numberOfBytes": "32"
      },
      "t_enum(RaffleState)1693": {
        "encoding": "inplace",
        "label": "enum Raffle.RaffleState",
        "numberOfBytes": "1"
      },
      "t_uint256": {
        "encoding": "inplace",
        "label": "uint256",
        "numberOfBytes": "32"
      }
    }
  }
}